{
	"data": {
		"bytecode": {
			"linkReferences": {},
			"object": "60806040526000805534801561001457600080fd5b50610a30806100246000396000f3fe6080604052600436106100345760003560e01c806392f0a44714610039578063bf6a616514610077578063e8118824146100b4575b600080fd5b34801561004557600080fd5b50610060600480360381019061005b91906104a0565b6100d0565b60405161006e92919061051d565b60405180910390f35b34801561008357600080fd5b5061009e60048036038101906100999190610572565b6101e2565b6040516100ab91906105ce565b60405180910390f35b6100ce60048036038101906100c99190610572565b610259565b005b60008060006001846040516100e5919061065a565b908152602001604051809103902060405180608001604052908160008201548152602001600182018054610118906106a0565b80601f0160208091040260200160405190810160405280929190818152602001828054610144906106a0565b80156101915780601f1061016657610100808354040283529160200191610191565b820191906000526020600020905b81548152906001019060200180831161017457829003601f168201915b5050505050815260200160028201548152602001600382015481525050905080606001518160400151106101d0576000816060015192509250506101dd565b6001816060015192509250505b915091565b60006101ee83836102f3565b1561024e5781600184604051610204919061065a565b9081526020016040518091039020600301546102209190610700565b600184604051610230919061065a565b90815260200160405180910390206003018190555060019050610253565b600090505b92915050565b60008081548092919061026b90610734565b919050555060006040518060800160405280600054815260200184815260200183815260200160008152509050806001846040516102a9919061065a565b90815260200160405180910390206000820151816000015560208201518160010190816102d69190610928565b506040820151816002015560608201518160030155905050505050565b600080600184604051610306919061065a565b908152602001604051809103902090508281600301546103269190610700565b81600201541061033a576001915050610340565b60009150505b92915050565b6000604051905090565b600080fd5b600080fd5b600080fd5b600080fd5b6000601f19601f8301169050919050565b7f4e487b7100000000000000000000000000000000000000000000000000000000600052604160045260246000fd5b6103ad82610364565b810181811067ffffffffffffffff821117156103cc576103cb610375565b5b80604052505050565b60006103df610346565b90506103eb82826103a4565b919050565b600067ffffffffffffffff82111561040b5761040a610375565b5b61041482610364565b9050602081019050919050565b82818337600083830152505050565b600061044361043e846103f0565b6103d5565b90508281526020810184848401111561045f5761045e61035f565b5b61046a848285610421565b509392505050565b600082601f8301126104875761048661035a565b5b8135610497848260208601610430565b91505092915050565b6000602082840312156104b6576104b5610350565b5b600082013567ffffffffffffffff8111156104d4576104d3610355565b5b6104e084828501610472565b91505092915050565b60008115159050919050565b6104fe816104e9565b82525050565b6000819050919050565b61051781610504565b82525050565b600060408201905061053260008301856104f5565b61053f602083018461050e565b9392505050565b61054f81610504565b811461055a57600080fd5b50565b60008135905061056c81610546565b92915050565b6000806040838503121561058957610588610350565b5b600083013567ffffffffffffffff8111156105a7576105a6610355565b5b6105b385828601610472565b92505060206105c48582860161055d565b9150509250929050565b60006020820190506105e360008301846104f5565b92915050565b600081519050919050565b600081905092915050565b60005b8381101561061d578082015181840152602081019050610602565b60008484015250505050565b6000610634826105e9565b61063e81856105f4565b935061064e8185602086016105ff565b80840191505092915050565b60006106668284610629565b915081905092915050565b7f4e487b7100000000000000000000000000000000000000000000000000000000600052602260045260246000fd5b600060028204905060018216806106b857607f821691505b6020821081036106cb576106ca610671565b5b50919050565b7f4e487b7100000000000000000000000000000000000000000000000000000000600052601160045260246000fd5b600061070b82610504565b915061071683610504565b925082820190508082111561072e5761072d6106d1565b5b92915050565b600061073f82610504565b91507fffffffffffffffffffffffffffffffffffffffffffffffffffffffffffffffff8203610771576107706106d1565b5b600182019050919050565b60008190508160005260206000209050919050565b60006020601f8301049050919050565b600082821b905092915050565b6000600883026107de7fffffffffffffffffffffffffffffffffffffffffffffffffffffffffffffffff826107a1565b6107e886836107a1565b95508019841693508086168417925050509392505050565b6000819050919050565b600061082561082061081b84610504565b610800565b610504565b9050919050565b6000819050919050565b61083f8361080a565b61085361084b8261082c565b8484546107ae565b825550505050565b600090565b61086861085b565b610873818484610836565b505050565b5b818110156108975761088c600082610860565b600181019050610879565b5050565b601f8211156108dc576108ad8161077c565b6108b684610791565b810160208510156108c5578190505b6108d96108d185610791565b830182610878565b50505b505050565b600082821c905092915050565b60006108ff600019846008026108e1565b1980831691505092915050565b600061091883836108ee565b9150826002028217905092915050565b610931826105e9565b67ffffffffffffffff81111561094a57610949610375565b5b61095482546106a0565b61095f82828561089b565b600060209050601f8311600181146109925760008415610980578287015190505b61098a858261090c565b8655506109f2565b601f1984166109a08661077c565b60005b828110156109c8578489015182556001820191506020850194506020810190506109a3565b868310156109e557848901516109e1601f8916826108ee565b8355505b6001600288020188555050505b50505050505056fea264697066735822122066b1fc98c49a21d9880c63d01259e998b8b83b3ff8d321de385f201846738b7764736f6c63430008120033",
			"opcodes": "PUSH1 0x80 PUSH1 0x40 MSTORE PUSH1 0x0 DUP1 SSTORE CALLVALUE DUP1 ISZERO PUSH2 0x14 JUMPI PUSH1 0x0 DUP1 REVERT JUMPDEST POP PUSH2 0xA30 DUP1 PUSH2 0x24 PUSH1 0x0 CODECOPY PUSH1 0x0 RETURN INVALID PUSH1 0x80 PUSH1 0x40 MSTORE PUSH1 0x4 CALLDATASIZE LT PUSH2 0x34 JUMPI PUSH1 0x0 CALLDATALOAD PUSH1 0xE0 SHR DUP1 PUSH4 0x92F0A447 EQ PUSH2 0x39 JUMPI DUP1 PUSH4 0xBF6A6165 EQ PUSH2 0x77 JUMPI DUP1 PUSH4 0xE8118824 EQ PUSH2 0xB4 JUMPI JUMPDEST PUSH1 0x0 DUP1 REVERT JUMPDEST CALLVALUE DUP1 ISZERO PUSH2 0x45 JUMPI PUSH1 0x0 DUP1 REVERT JUMPDEST POP PUSH2 0x60 PUSH1 0x4 DUP1 CALLDATASIZE SUB DUP2 ADD SWAP1 PUSH2 0x5B SWAP2 SWAP1 PUSH2 0x4A0 JUMP JUMPDEST PUSH2 0xD0 JUMP JUMPDEST PUSH1 0x40 MLOAD PUSH2 0x6E SWAP3 SWAP2 SWAP1 PUSH2 0x51D JUMP JUMPDEST PUSH1 0x40 MLOAD DUP1 SWAP2 SUB SWAP1 RETURN JUMPDEST CALLVALUE DUP1 ISZERO PUSH2 0x83 JUMPI PUSH1 0x0 DUP1 REVERT JUMPDEST POP PUSH2 0x9E PUSH1 0x4 DUP1 CALLDATASIZE SUB DUP2 ADD SWAP1 PUSH2 0x99 SWAP2 SWAP1 PUSH2 0x572 JUMP JUMPDEST PUSH2 0x1E2 JUMP JUMPDEST PUSH1 0x40 MLOAD PUSH2 0xAB SWAP2 SWAP1 PUSH2 0x5CE JUMP JUMPDEST PUSH1 0x40 MLOAD DUP1 SWAP2 SUB SWAP1 RETURN JUMPDEST PUSH2 0xCE PUSH1 0x4 DUP1 CALLDATASIZE SUB DUP2 ADD SWAP1 PUSH2 0xC9 SWAP2 SWAP1 PUSH2 0x572 JUMP JUMPDEST PUSH2 0x259 JUMP JUMPDEST STOP JUMPDEST PUSH1 0x0 DUP1 PUSH1 0x0 PUSH1 0x1 DUP5 PUSH1 0x40 MLOAD PUSH2 0xE5 SWAP2 SWAP1 PUSH2 0x65A JUMP JUMPDEST SWAP1 DUP2 MSTORE PUSH1 0x20 ADD PUSH1 0x40 MLOAD DUP1 SWAP2 SUB SWAP1 KECCAK256 PUSH1 0x40 MLOAD DUP1 PUSH1 0x80 ADD PUSH1 0x40 MSTORE SWAP1 DUP2 PUSH1 0x0 DUP3 ADD SLOAD DUP2 MSTORE PUSH1 0x20 ADD PUSH1 0x1 DUP3 ADD DUP1 SLOAD PUSH2 0x118 SWAP1 PUSH2 0x6A0 JUMP JUMPDEST DUP1 PUSH1 0x1F ADD PUSH1 0x20 DUP1 SWAP2 DIV MUL PUSH1 0x20 ADD PUSH1 0x40 MLOAD SWAP1 DUP2 ADD PUSH1 0x40 MSTORE DUP1 SWAP3 SWAP2 SWAP1 DUP2 DUP2 MSTORE PUSH1 0x20 ADD DUP3 DUP1 SLOAD PUSH2 0x144 SWAP1 PUSH2 0x6A0 JUMP JUMPDEST DUP1 ISZERO PUSH2 0x191 JUMPI DUP1 PUSH1 0x1F LT PUSH2 0x166 JUMPI PUSH2 0x100 DUP1 DUP4 SLOAD DIV MUL DUP4 MSTORE SWAP2 PUSH1 0x20 ADD SWAP2 PUSH2 0x191 JUMP JUMPDEST DUP3 ADD SWAP2 SWAP1 PUSH1 0x0 MSTORE PUSH1 0x20 PUSH1 0x0 KECCAK256 SWAP1 JUMPDEST DUP2 SLOAD DUP2 MSTORE SWAP1 PUSH1 0x1 ADD SWAP1 PUSH1 0x20 ADD DUP1 DUP4 GT PUSH2 0x174 JUMPI DUP3 SWAP1 SUB PUSH1 0x1F AND DUP3 ADD SWAP2 JUMPDEST POP POP POP POP POP DUP2 MSTORE PUSH1 0x20 ADD PUSH1 0x2 DUP3 ADD SLOAD DUP2 MSTORE PUSH1 0x20 ADD PUSH1 0x3 DUP3 ADD SLOAD DUP2 MSTORE POP POP SWAP1 POP DUP1 PUSH1 0x60 ADD MLOAD DUP2 PUSH1 0x40 ADD MLOAD LT PUSH2 0x1D0 JUMPI PUSH1 0x0 DUP2 PUSH1 0x60 ADD MLOAD SWAP3 POP SWAP3 POP POP PUSH2 0x1DD JUMP JUMPDEST PUSH1 0x1 DUP2 PUSH1 0x60 ADD MLOAD SWAP3 POP SWAP3 POP POP JUMPDEST SWAP2 POP SWAP2 JUMP JUMPDEST PUSH1 0x0 PUSH2 0x1EE DUP4 DUP4 PUSH2 0x2F3 JUMP JUMPDEST ISZERO PUSH2 0x24E JUMPI DUP2 PUSH1 0x1 DUP5 PUSH1 0x40 MLOAD PUSH2 0x204 SWAP2 SWAP1 PUSH2 0x65A JUMP JUMPDEST SWAP1 DUP2 MSTORE PUSH1 0x20 ADD PUSH1 0x40 MLOAD DUP1 SWAP2 SUB SWAP1 KECCAK256 PUSH1 0x3 ADD SLOAD PUSH2 0x220 SWAP2 SWAP1 PUSH2 0x700 JUMP JUMPDEST PUSH1 0x1 DUP5 PUSH1 0x40 MLOAD PUSH2 0x230 SWAP2 SWAP1 PUSH2 0x65A JUMP JUMPDEST SWAP1 DUP2 MSTORE PUSH1 0x20 ADD PUSH1 0x40 MLOAD DUP1 SWAP2 SUB SWAP1 KECCAK256 PUSH1 0x3 ADD DUP2 SWAP1 SSTORE POP PUSH1 0x1 SWAP1 POP PUSH2 0x253 JUMP JUMPDEST PUSH1 0x0 SWAP1 POP JUMPDEST SWAP3 SWAP2 POP POP JUMP JUMPDEST PUSH1 0x0 DUP1 DUP2 SLOAD DUP1 SWAP3 SWAP2 SWAP1 PUSH2 0x26B SWAP1 PUSH2 0x734 JUMP JUMPDEST SWAP2 SWAP1 POP SSTORE POP PUSH1 0x0 PUSH1 0x40 MLOAD DUP1 PUSH1 0x80 ADD PUSH1 0x40 MSTORE DUP1 PUSH1 0x0 SLOAD DUP2 MSTORE PUSH1 0x20 ADD DUP5 DUP2 MSTORE PUSH1 0x20 ADD DUP4 DUP2 MSTORE PUSH1 0x20 ADD PUSH1 0x0 DUP2 MSTORE POP SWAP1 POP DUP1 PUSH1 0x1 DUP5 PUSH1 0x40 MLOAD PUSH2 0x2A9 SWAP2 SWAP1 PUSH2 0x65A JUMP JUMPDEST SWAP1 DUP2 MSTORE PUSH1 0x20 ADD PUSH1 0x40 MLOAD DUP1 SWAP2 SUB SWAP1 KECCAK256 PUSH1 0x0 DUP3 ADD MLOAD DUP2 PUSH1 0x0 ADD SSTORE PUSH1 0x20 DUP3 ADD MLOAD DUP2 PUSH1 0x1 ADD SWAP1 DUP2 PUSH2 0x2D6 SWAP2 SWAP1 PUSH2 0x928 JUMP JUMPDEST POP PUSH1 0x40 DUP3 ADD MLOAD DUP2 PUSH1 0x2 ADD SSTORE PUSH1 0x60 DUP3 ADD MLOAD DUP2 PUSH1 0x3 ADD SSTORE SWAP1 POP POP POP POP POP JUMP JUMPDEST PUSH1 0x0 DUP1 PUSH1 0x1 DUP5 PUSH1 0x40 MLOAD PUSH2 0x306 SWAP2 SWAP1 PUSH2 0x65A JUMP JUMPDEST SWAP1 DUP2 MSTORE PUSH1 0x20 ADD PUSH1 0x40 MLOAD DUP1 SWAP2 SUB SWAP1 KECCAK256 SWAP1 POP DUP3 DUP2 PUSH1 0x3 ADD SLOAD PUSH2 0x326 SWAP2 SWAP1 PUSH2 0x700 JUMP JUMPDEST DUP2 PUSH1 0x2 ADD SLOAD LT PUSH2 0x33A JUMPI PUSH1 0x1 SWAP2 POP POP PUSH2 0x340 JUMP JUMPDEST PUSH1 0x0 SWAP2 POP POP JUMPDEST SWAP3 SWAP2 POP POP JUMP JUMPDEST PUSH1 0x0 PUSH1 0x40 MLOAD SWAP1 POP SWAP1 JUMP JUMPDEST PUSH1 0x0 DUP1 REVERT JUMPDEST PUSH1 0x0 DUP1 REVERT JUMPDEST PUSH1 0x0 DUP1 REVERT JUMPDEST PUSH1 0x0 DUP1 REVERT JUMPDEST PUSH1 0x0 PUSH1 0x1F NOT PUSH1 0x1F DUP4 ADD AND SWAP1 POP SWAP2 SWAP1 POP JUMP JUMPDEST PUSH32 0x4E487B7100000000000000000000000000000000000000000000000000000000 PUSH1 0x0 MSTORE PUSH1 0x41 PUSH1 0x4 MSTORE PUSH1 0x24 PUSH1 0x0 REVERT JUMPDEST PUSH2 0x3AD DUP3 PUSH2 0x364 JUMP JUMPDEST DUP2 ADD DUP2 DUP2 LT PUSH8 0xFFFFFFFFFFFFFFFF DUP3 GT OR ISZERO PUSH2 0x3CC JUMPI PUSH2 0x3CB PUSH2 0x375 JUMP JUMPDEST JUMPDEST DUP1 PUSH1 0x40 MSTORE POP POP POP JUMP JUMPDEST PUSH1 0x0 PUSH2 0x3DF PUSH2 0x346 JUMP JUMPDEST SWAP1 POP PUSH2 0x3EB DUP3 DUP3 PUSH2 0x3A4 JUMP JUMPDEST SWAP2 SWAP1 POP JUMP JUMPDEST PUSH1 0x0 PUSH8 0xFFFFFFFFFFFFFFFF DUP3 GT ISZERO PUSH2 0x40B JUMPI PUSH2 0x40A PUSH2 0x375 JUMP JUMPDEST JUMPDEST PUSH2 0x414 DUP3 PUSH2 0x364 JUMP JUMPDEST SWAP1 POP PUSH1 0x20 DUP2 ADD SWAP1 POP SWAP2 SWAP1 POP JUMP JUMPDEST DUP3 DUP2 DUP4 CALLDATACOPY PUSH1 0x0 DUP4 DUP4 ADD MSTORE POP POP POP JUMP JUMPDEST PUSH1 0x0 PUSH2 0x443 PUSH2 0x43E DUP5 PUSH2 0x3F0 JUMP JUMPDEST PUSH2 0x3D5 JUMP JUMPDEST SWAP1 POP DUP3 DUP2 MSTORE PUSH1 0x20 DUP2 ADD DUP5 DUP5 DUP5 ADD GT ISZERO PUSH2 0x45F JUMPI PUSH2 0x45E PUSH2 0x35F JUMP JUMPDEST JUMPDEST PUSH2 0x46A DUP5 DUP3 DUP6 PUSH2 0x421 JUMP JUMPDEST POP SWAP4 SWAP3 POP POP POP JUMP JUMPDEST PUSH1 0x0 DUP3 PUSH1 0x1F DUP4 ADD SLT PUSH2 0x487 JUMPI PUSH2 0x486 PUSH2 0x35A JUMP JUMPDEST JUMPDEST DUP2 CALLDATALOAD PUSH2 0x497 DUP5 DUP3 PUSH1 0x20 DUP7 ADD PUSH2 0x430 JUMP JUMPDEST SWAP2 POP POP SWAP3 SWAP2 POP POP JUMP JUMPDEST PUSH1 0x0 PUSH1 0x20 DUP3 DUP5 SUB SLT ISZERO PUSH2 0x4B6 JUMPI PUSH2 0x4B5 PUSH2 0x350 JUMP JUMPDEST JUMPDEST PUSH1 0x0 DUP3 ADD CALLDATALOAD PUSH8 0xFFFFFFFFFFFFFFFF DUP2 GT ISZERO PUSH2 0x4D4 JUMPI PUSH2 0x4D3 PUSH2 0x355 JUMP JUMPDEST JUMPDEST PUSH2 0x4E0 DUP5 DUP3 DUP6 ADD PUSH2 0x472 JUMP JUMPDEST SWAP2 POP POP SWAP3 SWAP2 POP POP JUMP JUMPDEST PUSH1 0x0 DUP2 ISZERO ISZERO SWAP1 POP SWAP2 SWAP1 POP JUMP JUMPDEST PUSH2 0x4FE DUP2 PUSH2 0x4E9 JUMP JUMPDEST DUP3 MSTORE POP POP JUMP JUMPDEST PUSH1 0x0 DUP2 SWAP1 POP SWAP2 SWAP1 POP JUMP JUMPDEST PUSH2 0x517 DUP2 PUSH2 0x504 JUMP JUMPDEST DUP3 MSTORE POP POP JUMP JUMPDEST PUSH1 0x0 PUSH1 0x40 DUP3 ADD SWAP1 POP PUSH2 0x532 PUSH1 0x0 DUP4 ADD DUP6 PUSH2 0x4F5 JUMP JUMPDEST PUSH2 0x53F PUSH1 0x20 DUP4 ADD DUP5 PUSH2 0x50E JUMP JUMPDEST SWAP4 SWAP3 POP POP POP JUMP JUMPDEST PUSH2 0x54F DUP2 PUSH2 0x504 JUMP JUMPDEST DUP2 EQ PUSH2 0x55A JUMPI PUSH1 0x0 DUP1 REVERT JUMPDEST POP JUMP JUMPDEST PUSH1 0x0 DUP2 CALLDATALOAD SWAP1 POP PUSH2 0x56C DUP2 PUSH2 0x546 JUMP JUMPDEST SWAP3 SWAP2 POP POP JUMP JUMPDEST PUSH1 0x0 DUP1 PUSH1 0x40 DUP4 DUP6 SUB SLT ISZERO PUSH2 0x589 JUMPI PUSH2 0x588 PUSH2 0x350 JUMP JUMPDEST JUMPDEST PUSH1 0x0 DUP4 ADD CALLDATALOAD PUSH8 0xFFFFFFFFFFFFFFFF DUP2 GT ISZERO PUSH2 0x5A7 JUMPI PUSH2 0x5A6 PUSH2 0x355 JUMP JUMPDEST JUMPDEST PUSH2 0x5B3 DUP6 DUP3 DUP7 ADD PUSH2 0x472 JUMP JUMPDEST SWAP3 POP POP PUSH1 0x20 PUSH2 0x5C4 DUP6 DUP3 DUP7 ADD PUSH2 0x55D JUMP JUMPDEST SWAP2 POP POP SWAP3 POP SWAP3 SWAP1 POP JUMP JUMPDEST PUSH1 0x0 PUSH1 0x20 DUP3 ADD SWAP1 POP PUSH2 0x5E3 PUSH1 0x0 DUP4 ADD DUP5 PUSH2 0x4F5 JUMP JUMPDEST SWAP3 SWAP2 POP POP JUMP JUMPDEST PUSH1 0x0 DUP2 MLOAD SWAP1 POP SWAP2 SWAP1 POP JUMP JUMPDEST PUSH1 0x0 DUP2 SWAP1 POP SWAP3 SWAP2 POP POP JUMP JUMPDEST PUSH1 0x0 JUMPDEST DUP4 DUP2 LT ISZERO PUSH2 0x61D JUMPI DUP1 DUP3 ADD MLOAD DUP2 DUP5 ADD MSTORE PUSH1 0x20 DUP2 ADD SWAP1 POP PUSH2 0x602 JUMP JUMPDEST PUSH1 0x0 DUP5 DUP5 ADD MSTORE POP POP POP POP JUMP JUMPDEST PUSH1 0x0 PUSH2 0x634 DUP3 PUSH2 0x5E9 JUMP JUMPDEST PUSH2 0x63E DUP2 DUP6 PUSH2 0x5F4 JUMP JUMPDEST SWAP4 POP PUSH2 0x64E DUP2 DUP6 PUSH1 0x20 DUP7 ADD PUSH2 0x5FF JUMP JUMPDEST DUP1 DUP5 ADD SWAP2 POP POP SWAP3 SWAP2 POP POP JUMP JUMPDEST PUSH1 0x0 PUSH2 0x666 DUP3 DUP5 PUSH2 0x629 JUMP JUMPDEST SWAP2 POP DUP2 SWAP1 POP SWAP3 SWAP2 POP POP JUMP JUMPDEST PUSH32 0x4E487B7100000000000000000000000000000000000000000000000000000000 PUSH1 0x0 MSTORE PUSH1 0x22 PUSH1 0x4 MSTORE PUSH1 0x24 PUSH1 0x0 REVERT JUMPDEST PUSH1 0x0 PUSH1 0x2 DUP3 DIV SWAP1 POP PUSH1 0x1 DUP3 AND DUP1 PUSH2 0x6B8 JUMPI PUSH1 0x7F DUP3 AND SWAP2 POP JUMPDEST PUSH1 0x20 DUP3 LT DUP2 SUB PUSH2 0x6CB JUMPI PUSH2 0x6CA PUSH2 0x671 JUMP JUMPDEST JUMPDEST POP SWAP2 SWAP1 POP JUMP JUMPDEST PUSH32 0x4E487B7100000000000000000000000000000000000000000000000000000000 PUSH1 0x0 MSTORE PUSH1 0x11 PUSH1 0x4 MSTORE PUSH1 0x24 PUSH1 0x0 REVERT JUMPDEST PUSH1 0x0 PUSH2 0x70B DUP3 PUSH2 0x504 JUMP JUMPDEST SWAP2 POP PUSH2 0x716 DUP4 PUSH2 0x504 JUMP JUMPDEST SWAP3 POP DUP3 DUP3 ADD SWAP1 POP DUP1 DUP3 GT ISZERO PUSH2 0x72E JUMPI PUSH2 0x72D PUSH2 0x6D1 JUMP JUMPDEST JUMPDEST SWAP3 SWAP2 POP POP JUMP JUMPDEST PUSH1 0x0 PUSH2 0x73F DUP3 PUSH2 0x504 JUMP JUMPDEST SWAP2 POP PUSH32 0xFFFFFFFFFFFFFFFFFFFFFFFFFFFFFFFFFFFFFFFFFFFFFFFFFFFFFFFFFFFFFFFF DUP3 SUB PUSH2 0x771 JUMPI PUSH2 0x770 PUSH2 0x6D1 JUMP JUMPDEST JUMPDEST PUSH1 0x1 DUP3 ADD SWAP1 POP SWAP2 SWAP1 POP JUMP JUMPDEST PUSH1 0x0 DUP2 SWAP1 POP DUP2 PUSH1 0x0 MSTORE PUSH1 0x20 PUSH1 0x0 KECCAK256 SWAP1 POP SWAP2 SWAP1 POP JUMP JUMPDEST PUSH1 0x0 PUSH1 0x20 PUSH1 0x1F DUP4 ADD DIV SWAP1 POP SWAP2 SWAP1 POP JUMP JUMPDEST PUSH1 0x0 DUP3 DUP3 SHL SWAP1 POP SWAP3 SWAP2 POP POP JUMP JUMPDEST PUSH1 0x0 PUSH1 0x8 DUP4 MUL PUSH2 0x7DE PUSH32 0xFFFFFFFFFFFFFFFFFFFFFFFFFFFFFFFFFFFFFFFFFFFFFFFFFFFFFFFFFFFFFFFF DUP3 PUSH2 0x7A1 JUMP JUMPDEST PUSH2 0x7E8 DUP7 DUP4 PUSH2 0x7A1 JUMP JUMPDEST SWAP6 POP DUP1 NOT DUP5 AND SWAP4 POP DUP1 DUP7 AND DUP5 OR SWAP3 POP POP POP SWAP4 SWAP3 POP POP POP JUMP JUMPDEST PUSH1 0x0 DUP2 SWAP1 POP SWAP2 SWAP1 POP JUMP JUMPDEST PUSH1 0x0 PUSH2 0x825 PUSH2 0x820 PUSH2 0x81B DUP5 PUSH2 0x504 JUMP JUMPDEST PUSH2 0x800 JUMP JUMPDEST PUSH2 0x504 JUMP JUMPDEST SWAP1 POP SWAP2 SWAP1 POP JUMP JUMPDEST PUSH1 0x0 DUP2 SWAP1 POP SWAP2 SWAP1 POP JUMP JUMPDEST PUSH2 0x83F DUP4 PUSH2 0x80A JUMP JUMPDEST PUSH2 0x853 PUSH2 0x84B DUP3 PUSH2 0x82C JUMP JUMPDEST DUP5 DUP5 SLOAD PUSH2 0x7AE JUMP JUMPDEST DUP3 SSTORE POP POP POP POP JUMP JUMPDEST PUSH1 0x0 SWAP1 JUMP JUMPDEST PUSH2 0x868 PUSH2 0x85B JUMP JUMPDEST PUSH2 0x873 DUP2 DUP5 DUP5 PUSH2 0x836 JUMP JUMPDEST POP POP POP JUMP JUMPDEST JUMPDEST DUP2 DUP2 LT ISZERO PUSH2 0x897 JUMPI PUSH2 0x88C PUSH1 0x0 DUP3 PUSH2 0x860 JUMP JUMPDEST PUSH1 0x1 DUP2 ADD SWAP1 POP PUSH2 0x879 JUMP JUMPDEST POP POP JUMP JUMPDEST PUSH1 0x1F DUP3 GT ISZERO PUSH2 0x8DC JUMPI PUSH2 0x8AD DUP2 PUSH2 0x77C JUMP JUMPDEST PUSH2 0x8B6 DUP5 PUSH2 0x791 JUMP JUMPDEST DUP2 ADD PUSH1 0x20 DUP6 LT ISZERO PUSH2 0x8C5 JUMPI DUP2 SWAP1 POP JUMPDEST PUSH2 0x8D9 PUSH2 0x8D1 DUP6 PUSH2 0x791 JUMP JUMPDEST DUP4 ADD DUP3 PUSH2 0x878 JUMP JUMPDEST POP POP JUMPDEST POP POP POP JUMP JUMPDEST PUSH1 0x0 DUP3 DUP3 SHR SWAP1 POP SWAP3 SWAP2 POP POP JUMP JUMPDEST PUSH1 0x0 PUSH2 0x8FF PUSH1 0x0 NOT DUP5 PUSH1 0x8 MUL PUSH2 0x8E1 JUMP JUMPDEST NOT DUP1 DUP4 AND SWAP2 POP POP SWAP3 SWAP2 POP POP JUMP JUMPDEST PUSH1 0x0 PUSH2 0x918 DUP4 DUP4 PUSH2 0x8EE JUMP JUMPDEST SWAP2 POP DUP3 PUSH1 0x2 MUL DUP3 OR SWAP1 POP SWAP3 SWAP2 POP POP JUMP JUMPDEST PUSH2 0x931 DUP3 PUSH2 0x5E9 JUMP JUMPDEST PUSH8 0xFFFFFFFFFFFFFFFF DUP2 GT ISZERO PUSH2 0x94A JUMPI PUSH2 0x949 PUSH2 0x375 JUMP JUMPDEST JUMPDEST PUSH2 0x954 DUP3 SLOAD PUSH2 0x6A0 JUMP JUMPDEST PUSH2 0x95F DUP3 DUP3 DUP6 PUSH2 0x89B JUMP JUMPDEST PUSH1 0x0 PUSH1 0x20 SWAP1 POP PUSH1 0x1F DUP4 GT PUSH1 0x1 DUP2 EQ PUSH2 0x992 JUMPI PUSH1 0x0 DUP5 ISZERO PUSH2 0x980 JUMPI DUP3 DUP8 ADD MLOAD SWAP1 POP JUMPDEST PUSH2 0x98A DUP6 DUP3 PUSH2 0x90C JUMP JUMPDEST DUP7 SSTORE POP PUSH2 0x9F2 JUMP JUMPDEST PUSH1 0x1F NOT DUP5 AND PUSH2 0x9A0 DUP7 PUSH2 0x77C JUMP JUMPDEST PUSH1 0x0 JUMPDEST DUP3 DUP2 LT ISZERO PUSH2 0x9C8 JUMPI DUP5 DUP10 ADD MLOAD DUP3 SSTORE PUSH1 0x1 DUP3 ADD SWAP2 POP PUSH1 0x20 DUP6 ADD SWAP5 POP PUSH1 0x20 DUP2 ADD SWAP1 POP PUSH2 0x9A3 JUMP JUMPDEST DUP7 DUP4 LT ISZERO PUSH2 0x9E5 JUMPI DUP5 DUP10 ADD MLOAD PUSH2 0x9E1 PUSH1 0x1F DUP10 AND DUP3 PUSH2 0x8EE JUMP JUMPDEST DUP4 SSTORE POP JUMPDEST PUSH1 0x1 PUSH1 0x2 DUP9 MUL ADD DUP9 SSTORE POP POP POP JUMPDEST POP POP POP POP POP POP JUMP INVALID LOG2 PUSH5 0x6970667358 0x22 SLT KECCAK256 PUSH7 0xB1FC98C49A21D9 DUP9 0xC PUSH4 0xD01259E9 SWAP9 0xB8 0xB8 EXTCODESIZE EXTCODEHASH 0xF8 0xD3 0x21 0xDE CODESIZE 0x5F KECCAK256 XOR CHAINID PUSH20 0x8B7764736F6C6343000812003300000000000000 "
		},
		"gasEstimates": {
			"creation": {
				"codeDepositCost": "521600",
				"executionCost": "5562",
				"totalCost": "527162"
			},
			"external": {
				"addCause(string,uint256)": "infinite",
				"donateMoney(string,uint256)": "infinite",
				"moneyIsColleted(string)": "infinite"
			},
			"internal": {
				"moneyIsDonable(string memory,uint256)": "infinite"
			}
		},
		"methodIdentifiers": {
			"addCause(string,uint256)": "e8118824",
			"donateMoney(string,uint256)": "bf6a6165",
			"moneyIsColleted(string)": "92f0a447"
		}
	},
	"abi": [
		{
			"inputs": [
				{
					"internalType": "string",
					"name": "_name",
					"type": "string"
				},
				{
					"internalType": "uint256",
					"name": "_objective",
					"type": "uint256"
				}
			],
			"name": "addCause",
			"outputs": [],
			"stateMutability": "payable",
			"type": "function"
		},
		{
			"inputs": [
				{
					"internalType": "string",
					"name": "_name",
					"type": "string"
				},
				{
					"internalType": "uint256",
					"name": "_amount",
					"type": "uint256"
				}
			],
			"name": "donateMoney",
			"outputs": [
				{
					"internalType": "bool",
					"name": "",
					"type": "bool"
				}
			],
			"stateMutability": "nonpayable",
			"type": "function"
		},
		{
			"inputs": [
				{
					"internalType": "string",
					"name": "_name",
					"type": "string"
				}
			],
			"name": "moneyIsColleted",
			"outputs": [
				{
					"internalType": "bool",
					"name": "",
					"type": "bool"
				},
				{
					"internalType": "uint256",
					"name": "",
					"type": "uint256"
				}
			],
			"stateMutability": "view",
			"type": "function"
		}
	]
}